:020000000C945E
:100002002A000C9400000C9400000C9400000C9444
:1000120000000C9400000C9400000C9400000C945E
:1000220000000C9400000C9400000C9400000C944E
:1000320000000C9400000C9400000C9400000C943E
:1000420000000C9400000C9400000C9400000C942E
:100052000000F894EE27ECBBF1E0FBBFEBBFE5BF7D
:10006200F8E1F1BDE1BD8DE0A2E0BB27ED938A95F9
:10007200E9F780E098E0A0E6ED930197E9F7EFE574
:10008200EDBFE8E0EEBFC0E6D2E00C944800E0E04D
:10009200EBBBEFEFEABBE0E0E8BBEFEFE7BBE0E092
:1000A200E5BBEFEFE4BBE0E0E2BBEFEFE1BBE0E09A
:1000B200E3BFE2BFECBFEFBDEEBDEDBDECBDE7BD02
:1000C200E6BDEBBDEABDE9BDE8BDE2BDE5BDE4BD0F
:1000D200E3BDE5BFE4BFE9BFE0E8E8B9E0E0E0BFC7
:1000E200EBB3E095EBBBE8B3E095E8BBE5B3E09595
:1000F200E5BBE2B3E095E2BBE4EFF1E0FA93EA9309
:100102000E948500EDCFFFCFE991F991309639F049
:1001120080EA9FE00197F1F7A8953197C9F7089512
:00000001FF
