:020000000C945E
:1000020039000C9400000C9400000C9400000C9435
:1000120000000C9400000C9400000C9400000C945E
:1000220000000C9400000C9400000C9400000C944E
:1000320000000C9400000C9400000C9400000C943E
:1000420000000C9400000C9400000C9400000C942E
:1000520000000102040810204080020820800104F0
:100062001040080060015400080068015C000000B4
:10007200F894EE27ECBBF1E0FBBFEBBFE5BFF8E184
:10008200F1BDE1BD8DE0A2E0BB27ED938A95E9F7D2
:1000920080E094E0A0E6ED930197E9F7E4E6F0E072
:1000A20085919591009761F0A591B5910590159074
:1000B200BF01F00105900D920197E1F7FB01F0CF2E
:1000C200EFE5EDBFE4E0EEBFC0E6D1E00C946900DD
:1000D200EFEFE7BBE0E0E8BBE4BBECE0E5BB9A99FD
:1000E2000CC05524E8E05E1638F4E52DF0E0E05A45
:1000F200FE4F12D05394F6CF0DC09B990BC05524DE
:10010200E8E05E1638F4E52DF0E0E859FE4F04D041
:100112005394F6CFE4CFFFCFE081E8BBE4EFF1E008
:10012200FA93EA930C949500E991F991309639F09B
:1001320080EA9FE00197F1F7A8953197C9F70895F2
:00000001FF
