:040000000C94FE005E
:100004000C9400000C9400000C9400000C9400006C
:100014000C9400000C9400000C9400000C9400005C
:100024000C94CE010C9400000C9400000C9400007D
:100034000C9400000C9400000C9400000C9400003C
:100044000C9400000C9400000C9400000C9400002C
:100054000000000030303030303000577269746571
:100064003A000D0A57726974653A0052656164205A
:100074003A000D0A526561643A000D0A4C32393374
:10008400445F312054657374202E2E2E200020648A
:100094006F6E65000D0A4C323933445F322054656B
:1000A4007374202E2E2E20000D0A4C43445F746579
:1000B4007374004D454741313600444556454C4F15
:1000C400504D454E5420425244000D0A4C454420A4
:1000D40054657374202E2E2E20000D0A41444320B3
:1000E40054657374202E2E2E000D0A434820256477
:1000F4003A2025303364203D3E2025303464206D81
:1001040056000D0A000D0A0A2320444F4E452E00C6
:100114000D0A0A204E6F77207072657373206B6529
:100124007973206F6E2072656D6F74650D0A0050CF
:10013400726573732072656D6F7465206B65797376
:10014400000D0A0A4B6579203A20256420000D0A27
:100154000A0A4D656761313620646576656C6F7097
:100164006D656E7420626F61726420666F722070B8
:10017400726F6A6563742F70726F647563742F7223
:100184006F626F7469637320646576656C6F706DFC
:10019400656E74000A0D4C434420697320617373C7
:1001A400756D656420746F20626520707265736577
:1001B4006E742E000A0D4C434420697320617373DE
:1001C400756D656420746F20626520616273656E6D
:1001D400742E000001002D4E414E000080C0070027
:1001E4006002580004000A00540001006D02D801A6
:1001F40002007102E0010000F894EE27ECBBF1E08C
:10020400FBBFEBBFE5BFF8E1F1BDE1BD8DE0A2E0CE
:10021400BB27ED938A95E9F780E098E0A0E6ED939B
:100224000197E9F7E2EEF1E085919591009761F08D
:10023400A591B59105901590BF01F00105900D921F
:100244000197E1F7FB01F0CFEFE5EDBFE8E0EEBF8A
:10025400C0E6D2E00C9475030E94EC0920E030E083
:10026400A698AE9AA0E09E99A1E0A130D9F39E9BF6
:10027400FECFA0E09E99A1E0A130D9F38CEB93E1ED
:100284000197F1F750E05C3080F4E0E09E99E1E002
:100294001E2F80E59AE10197F1F7220F331FE12F1A
:1002A400F0E02E2B3F2B5F5FEECFF9010E94F309A4
:1002B40071C01A930A93D0DFEF73F0701E2FCCDF56
:1002C400EF73F0700E2F0117B1F7E02F0991199118
:1002D4000895E8814E2E0E943107772061F40E9430
:1002E4001908E030E1F3E0EAEA930E944D087E2E1B
:1002F400E1E0E71591F70E943A070E941908E1EA44
:10030400EA930E944D08E0E0EA930E943208AE2E80
:10031400BB240E942808F5010C9478060E94280842
:1003240048800E9431070E941908E0EAEA930E947B
:100334004D087E2E0E943A07EA81EA930E944D08F6
:100344000E942808E5E0F0E00E9440070C94D506DE
:10035400E881E066E7B9369A349BFECF349AE5B17A
:100364000C941A071A930A9300E612E0EA81FB81BF
:100374000E9444071A930A930E94D705ED81EA93D9
:10038400ED81EA930E9466061A930A930E94B906C5
:100394001981088126960895EA93FA93EBE7F1EE22
:1003A400FDBDECBDC39B02C0C39801C0C39AF991C3
:1003B400E99118950E947A06EFE5F0E00E9449075A
:1003C4000E944D070E945C0788F4F8940E9462071B
:1003D4000E94670778940E946F070E9492060E9409
:1003E4006F070E9474070E947907ECCF0E9481076F
:1003F4000E947A06E4EFF1E00E944007EFE6F0E0A5
:100404000E9449070E9484070E945C0768F4F894DC
:100414000E94930778946A920E9492066A920E94BC
:1004240074070E947907F0CF23C00E9414080E9429
:1004340014080E944D070E945C0758F40E9462074A
:100444000E9467070E946F070E9474070E94790741
:10045400F2CF0E9481070E9484070E945C0740F447
:100464000E9493076A920E9474070E947907F5CF4D
:10047400E8EBFBE00E9440070895EEE7F0E00E94FD
:100484009A072296949A9698959A97980E949F070D
:100494009498969A9598979A0E949F0794989598FD
:1004A400969897980E94A2070C947806E8E9F0E0E1
:1004B4000E949A072296EFE0E7BBE0E0E8BBC09A0F
:1004C400C198C29AC3980E949F07C098C19AC298C3
:1004D400C39A0E949F07C098C198C298C3980E946B
:1004E400A2070C9478060E94EE0932E020E1ECEABF
:1004F400F0E00E949A0722962A930E94E7060E943F
:100504007A06E22FE695E350EA93E32FE695E1506D
:10051400EA930E946606E7EBF0E00E944907E22FA7
:10052400E695E750EA93E32FE695EA930E94660680
:10053400EEEBF0E00E9449070E9481070E94F50952
:1005440024960895EEECF0E00E949A0722960E9409
:10055400A5070E94A5070E94AC07A030E1E0BE07F2
:1005640070F4E0916702E8BBE8ECF0E00E94400719
:100574000E946207EE0FFF1F0E94B107ECCFE0E07C
:10058400E8BB0E94A2070C947806EEEDF0E00E940E
:100594009A0722966624E3E06E1610F00C941C036E
:1005A400E0E0F0E00E94B1070E94AC071697B8F5AE
:1005B400E0916702EA93CCDEE0936902FF276627A5
:1005C40077270E942709ADECBCE483E493E40E94FE
:1005D4005509DF01CB01E0E0F0E060E271E40E9444
:1005E400A309ABE6B2E00E94EE08ED93FC93EDEEB6
:1005F400F0E00E94B607E0916902FF27662777279B
:100604000E94BC08E0916B02F0916C020E944407C6
:100614008CE00E94B3052E960E947907C5CFE4EFC3
:10062400F1E00E944007E6E0F1E00E949A0722967A
:100634006394B1CFE9E0F1E00E949A070C94780644
:10064400E4E1F1E00E949A072296E0916A02E03028
:1006540031F00E947A06E3E3F1E00E94490729DEC3
:10066400F0E00E94B107E5E4F1E00E94B60784E0FF
:100674000E94B3052696E0916A02E03051F00E9490
:100684007A06E0E0EA93EA930E946207FA93EA9317
:1006940069DE0E946207309711F425DF23C0E13040
:1006A400A0E0FA0711F4E9DE1DC0E230A0E0FA0789
:1006B40011F4FCDE17C0E330A0E0FA0711F465DFA3
:1006C40011C0E430A0E0FA0711F43CDF0BC0E530C0
:1006D400A0E0FA0711F4A9DE05C0E630A0E0FA07AD
:1006E40009F468DEBCCFE8E1E1BDE0E1E1BDE0E0B2
:1006F400EBBBEABBEFEFE7BBE0E0E5BBE4BBE2BB8F
:10070400ECEFE1BBE0E0E3BFE2BFECBFEFBDE5E04F
:10071400EEBDE0E0EDBDECBDE7BDE6BDEBBDEABD81
:10072400E9BDE8BDE2BDE5BDE4BDE3BDE5BFE4BFB1
:10073400E4E0E9BFE0E0EBB9E8E1EAB9E6E8E0BD0E
:10074400E0E0E0BDE1E1E9B9E0E8E8B9E0E0E0BF1C
:10075400E0E6E7B9E6E8E6B90E9414087894E2E531
:10076400F1E00E949A072296E0E0F0E00E94B107CF
:10077400A298AA9A0E94AC07A83BEBE0BE0780F4BB
:100784009A9904C0E1E0E0936A020AC0E0E0E093D1
:100794006A020E947907E1E0F0E00E944007EACF94
:1007A400A0916A02A13019F4E8E9F1E002C0E8EB93
:1007B400F1E0FA93EA9380E00E94B3052296A091B7
:1007C4006A02A13099F48FDE9A9903C00E94BA0795
:1007D400FBCFF0DD9A9903C00E94BA07FBCF4DDE30
:1007E4009A9903C00E94BA07FBCF13C0ABDE9A9953
:1007F40003C00E94BA07FBCF18DE9A9903C00E9477
:10080400BA07FBCF3ADE52DE9A9903C00E94BA07B8
:10081400FBCFBBDE15DFFFCFFFCF5D9BFECFE881B3
:10082400ECB90C941A071A930A93AC81BD810E9407
:10083400B2083097D9F0AA81BB810E94B2088F0117
:10084400309749F00230E0E01E0778F0F801319764
:100854008F01ED93FC93AC81BD81ED91FD913196B7
:10086400FE93EE933197AE81A08303C0EE81EA93A9
:10087400D4DF19810881279608952B970E94EC09EB
:1008840010E0EF89F88D3196EF8BF88F3197E49172
:100894002E2FE03011F40C94AF05E12FE03039F441
:1008A400253211F411E002C00E94BD0755C1E130A8
:1008B400A9F4253219F40E94BD074DC112E040E0AD
:1008C40000E02D3211F401E047C12B3211F44BE268
:1008D40043C1203211F440E23FC102C0E23039F496
:1008E40050E013E0203311F4006836C102C0E33055
:1008F400A1F4203310F02A3308F009C0A52FEAE050
:10090400EA9FF0015E2FE22FE0535E0F25C12C36E3
:1009140019F4026015E020C104C0E53011F00C9414
:10092400AE05E22FE33649F40E94C807ED89FE893B
:10093400A481AA930E94CE070EC1E33741F40E941A
:10094400C8070E94D8070E941C071E2F0AC0E03760
:1009540069F40E94C8070E94D8070E9426071E2F28
:1009640008600F77E0E0E88B30E06FC0E43611F008
:10097400E93611F4046002C0E537A1F4EAE0E88B3B
:1009840001FF08C0E0E0FAEC6AE97BE30E94E207B9
:100994001AE023C0E0E1F7E260E070E00E94E207C1
:1009A40015E01BC0E83511F4086004C0E83711F005
:1009B4000C94AD05E0E1E88B01FF08C0E0E0F0E055
:1009C40060E070E10E94E20718E007C0E0E0F0E1B7
:1009D40060E070E00E94E20714E001FF08C00E949A
:1009E400C807AD89BE8914960E94B60815C002FFD7
:1009F4000AC00E94C807AD89BE8914960E94B20835
:100A04000E94840809C00E94C807AD89BE89149653
:100A14000E94B20866277727EC87FD876E877F8759
:100A240002FF13C0AF85AA235AF4EC85FD856E85B9
:100A34007F850E947608EC87FD876E877F874DE26D
:100A4400403011F01F5F01C00B7F00FD11C015176E
:100A540078F407FF08C002FF04C00B7F242F115055
:100A640001C020E301C020E20E94BD075150EFCF36
:100A7400312FE889E030D1F43030B9F003FF08C0F9
:100A8400EE81FF813196EE83FF833197E49105C0B7
:100A9400AE81BF81ED91AE83BF83EA930E94CE07FE
:100AA400503009F051503150E7CF4BC00E94E70756
:100AB4000E9489082E2F2A3030F003FF02C0295CDF
:100AC40001C0295A01C0205D04FD1BC0213328F454
:100AD4000E94F0070E94F50709F409C0531710F0AB
:100AE40000FF01C013C020E207FF0BC020E3006138
:100AF40002FF07C00B7F4A930E94CE07503009F0D3
:100B040051500E94BD07503009F0515031500E949D
:100B1400E7070E94AE08EC87FD876E877F87E88928
:100B24000E94F007FF27662777270E9489080E9402
:100B3400E207E885F9856A857B850E94E80909F062
:100B4400B5CF00FF08C0503031F05150E0E2EA93D5
:100B54000E94CE07F8CF10E094CE0E94F309699664
:100B64000895FF92F82E22971A930A93DE010E94A9
:100B740072088D01E0E0EA83EB83DE0114960E94A3
:100B840072080E94B208FA93EA931A930A93FE0138
:100B94003696FA93EA93E0E0F0E0FA93EA936DDE96
:100BA400198108812496FF90089524971A930A9333
:100BB400E0E0FAEC6AE97BE3EA83FB836C837D8300
:100BC40000E0AB85AA2362F4E885F9856A857B8514
:100BD4000E9476080E94E2070E94FD07EDE2EC9372
:100BE4000E9404080E9489081E2F103049F4003026
:100BF40039F4AA81BB818C819D810E94F50731F46F
:100C04000E94FD07E12FE05DEC9301E00E940408DF
:100C14000E94AE080E94E207AA81BB818C819D815B
:100C2400EAE0F0E060E070E00E948908EA83FB8378
:100C34006C837D830E94E80999F6AE81BF81E0E070
:100C4400EC93198108812C960895FFE0FA95F1F749
:100C54000895A7B3AF70A7BBC19AC098F6DFC29A34
:100C6400F4DFA6B3C298F1DFC29AEFDFC298A7FD02
:100C7400F5CF0895A07FAB2BA8BBC29A0E9427068C
:100C8400C2980E9427060895C198A7B3A76FA7BB6F
:100C9400B8B3BF70A881EEDFA881A295EBDFC19A3B
:100CA4000C941A07C29A0E942706E6B3C2980E94BF
:100CB4002706E07F08950E942706F4DFAE2FF2DFB7
:100CC400C198E295EA2B08950E942B06E881F0E092
:100CD400EF58FD4FE081A981EA0FEA930E9446068E
:100CE400E981E0937502E881E09376022296089503
:100CF4000E942B06E2E0EA930E9446060E942B061D
:100D0400ECE0EA930E9446060E942B06E1E0EA9397
:100D14000E944606E0E0E0937602E09375020895AF
:100D2400EF93FF93A8816894AA3061F0E894E0916E
:100D34007502EF5FE0937502E0917702A09175026E
:100D4400EA1760F4E0917602EF5FE0937602E0E068
:100D5400EA93E0917602EA93B7DF2EF07ADFC09A45
:100D6400A881AA9391DFFF91EF910C941A071A932B
:100D7400A981BA81ED91A983BA831E2FE03019F0BD
:100D84001A93CEDFF5CF0EC01A93E981FA8131961A
:100D9400E983FA833197E4911E2FE03019F01A9316
:100DA400BFDFF3CF188123960895AA27BB27119795
:100DB400F1F70895C198A7B3A76FA7BBB8B3BF70E5
:100DC400A8810E943C06C19A33C0C298C098E881A9
:100DD400E0937702E058E0937302E881E054E093F3
:100DE40074020E9409080E9409080E940908DDDFB4
:100DF400E0E2EA93DFDFD9DFE8E20E940F08E4E0F3
:100E04000E940F08E5E80E940F08A7B3AF70A7BBC4
:100E1400C19A0E945D06E53011F0E0E009C00E942D
:100E24002B06E6E0EA930E9446060E947A06E1E079
:100E340021960895A991B991EE27FF276D91662314
:100E440011F03196FBCF0895AA27BB27E991F991B8
:100E54000590002011F01196FBCFFD010895E88163
:100E6400F981E0704F01892C9924582C7724089536
:100E74005A920E944D084A920C944D08FA93EA93B0
:100E84000C946608662777270E94BC080895FA9395
:100E9400EA930C94C606E6E6F0E0FA93EA9380E05F
:100EA4000E94B3052296E0E0F0E0E0936702F0933D
:100EB40068020895A0916702B09168021597089599
:100EC400E0916702F09168020895EF5BFF4FEA93A7
:100ED400F7DFFA93EA930C949001F2DFEF5BFF4F94
:100EE400EA9308950E940F04ECE2F1E0C7CFA7E66D
:100EF400B2E0ED91FD913196FE93EE930895E8EE04
:100F0400F3E0BCCFE6E7F0E0FA93EA9380E00E94D6
:100F1400B3052296E0E0F0E0E0936702F093680204
:100F24000895CEDFFA93EA930E946B016E2E089522
:100F3400FA93EA9380E00C94B305E8EBFBE09ECFD0
:100F4400E2E9F0E0F5CFE1E0F0E0E0936702F0934E
:100F540068020895A0916702B09168020895E09331
:100F64006702F09368020895FA93EA93A9DF8ACF9F
:100F7400E4E6F0E083CF2A93EC89FD89FA93EA93BF
:100F8400FE017496FA93EA930C941504ED89FE8994
:100F94003497ED8BFE8B0895EC89FD89FA93EA93DF
:100FA400FE017496FA93EA930C941504AD89BE89F4
:100FB40014960E94B208EE83FF83FA93EA9308958D
:100FC400E887F9876A877B870895E885F9856A85C4
:100FD4007B85AC85BD858E859F850895A885B9855B
:100FE4008A859B850895A130E0E0BE07E0E08E0786
:100FF400E0E09E070895AE81BF811196AE83BF8362
:1010040011970895EA81FB816C817D81E7CF0E946D
:10101400D706E0E3EA930C94DC06EA930E944606C2
:101024000C94D706A898A998A09AA19815C0A1983D
:10103400A098EE270000999B0895989B089504D0EA
:10104400A19A02D0A09AE1E06BE107C0A19AA09A0C
:1010540003D0A098F9DFA19865E36A95F1F70895A4
:1010640078E0A098F1DF989BFECFEEDF8894999901
:101074000894A09AF1DFEE1F7A9599F77991772376
:1010840011F4A19801C0A19ADFDFA098E5DFA09A2E
:10109400DBDFA198D9CFE99178E0EE0F10F4A198A5
:1010A40001C0A19AD9DFA098CFDF989BFECFCCDFF7
:1010B400A09A7A9591F7A198C7DFA098CDDFE1E0D7
:1010C4009999EE27A09A0895E991F991309639F00B
:1010D40080EA9FE00197F1F7A8953197C9F7089541
:1010E4000024AF0DB01D0895F09560957095E195BD
:1010F400FF4F6F4F7F4F0895FE2FFF0FFF0B6F2F92
:101104007F2F08956F2F660F660B762F08953F93F8
:101114004F935F93002411244427552730E2AA0FEC
:10112400BB1F881F991F001C111C441F551F0E1A3A
:101134001F0A460B570B28F40E0E1F1E461F571F7F
:1011440001C0A1603A9559F7FD01BC01D001CA0163
:101154005F914F913F910895DADFFD01BC0108953D
:10116400ED91FC9111970895ED91FD916D917C9114
:10117400139708957A936A93FA93EA9308955523FB
:1011840042F4503811F4E0FF04C03196691F791F0E
:101194006BF050E8572711F45F9373C05F3F31F051
:1011A400660F000C57956795752F08955F9300207F
:1011B4000AF073C06CC050E8192E1522880F991FCD
:1011C4009527550F879550E8072E0522660F771F40
:1011D4007527550F67950895689401C0E8945F9347
:1011E400F2DF703818F07F3F08F44BC056E1571B0C
:1011F400AAF4519558300EF4593030F0EFEFFFEF68
:101204006FEF7FE777F91AC077275523B9F0EE0F10
:10121400FF1F661F771F5A95D1F710C077275830E4
:1012240028F0EF2FF62F672F5850F9CF552331F0C0
:1012340076956795F795E7955A95D1F700200AF4C6
:1012440053DF5F910895689401C0E894309760403B
:101254007040B1F0002426F0772312F4009444DFA8
:10126400172E7EE1112032F07A95EE0FFF1F661FD4
:10127400111CF9CFEF2FF62F612D5F938ADF5F9159
:101284000895EE27FF27662777275F910895EFEFEC
:10129400FFEF6FE77FEF5F910895EFEFFFEF6FE7E9
:1012A4007FE75F9108955F9386DF703851F390383C
:1012B40041F301240894791F23F41CF300203AF32A
:1012C400ECCF0F921F932F933F934F931127222715
:1012D4009927689FA0018F9F302D410D591F6B9F47
:1012E400300D411D591F8E9F27D0BF9F25D06A9F67
:1012F40023D0BE9F1DD0AF9F1BD0AE9F110D291FC1
:10130400391F491F591FE32FF42F652F522F4F9177
:101314003F912F911F910F9066232AF0550FEE1FD6
:10132400FF1F661F02C073954BF229DF5F9108957A
:10133400100D211D391F02C0200D311D491F591FD9
:1013440008955F9338DF703821F411200AF49FCF99
:10135400A4CF903809F495CF01240894970B1BF47B
:10136400D4F30020F3CF792F1F932F933F934F9300
:1013740011241127222733274427552790E2AE173B
:10138400BF078607410730F0AE1BBF0B860B410B2E
:10139400089401C08894551F221F331F111CAA1FD3
:1013A400BB1F881F441F9A9551F7F901612D4F9176
:1013B4003F912F911F91662332F0550FEE1FFF1FAF
:1013C400661F7A9543F2DBDE5F91089530976040A3
:1013D400704008955A934A933A932A931A930A931E
:1013E40008955D814C813B812A811981088108958A
:00000001FF
