:100000000C946F000C9400000C9400000C94000001
:100010000C9400000C9400000C9400000C94000060
:100020000C9400000C9400000C9400000C94000050
:100030000C9400000C9400000C9400000C94000040
:100040000C9400000C9400000C9400000C94000030
:100050000C9400000501260137015D018801B801FB
:10006000EE010B020100EE01B80188015D013701CC
:10007000260105010501050188018801B801B801C3
:1000800088015D015D014901490126012601050143
:10009000880188015D015D0149014901260188014E
:1000A00088015D015D014901490126010501050144
:1000B00088018801B801B80188015D015D0149012D
:1000C00049012601260105011027E80364000A0002
:1000D0000100001000011000010025642000F894C8
:1000E000EE27ECBBF1E0FBBFEBBFE5BFF8E1F1BDF4
:1000F000E1BD8DE0A2E0BB27ED938A95E9F780E0B2
:1001000094E0A0E6ED930197E9F7EFE5EDBFE4E0B9
:10011000EEBFC0E6D1E00C949D00E881F98166272E
:1001200077270E943403A0E8B4E88EE190E00E94B3
:100130005E036627772722960895E0E0EBBBEABBD3
:10014000E8BBEFEFE7BBECE0E5BBE0E0E4BBE2BB24
:10015000E0E2E1BBE0E0E3BFE2BFECBFE0E4EFBD23
:10016000EAE0EEBDE0E0EDBDECBDE7BDE6BDEBBD18
:10017000EABDE9BDE8BDE2BDE5BDE4BDE3BDE5BF67
:10018000E4BFE9BFEBB9E8E0EAB9E6E8E0BDE0E0EA
:10019000E0BDE1E1E9B9E0E8E8B9E0E0E0BFE8ECC2
:1001A000F0E00E94C10295980E94C5029A9912C07F
:1001B0005524EAE25E1668F4E52DA4E7B0E00E945B
:1001C000CA020E94C502E4E6F0E00E94C102539414
:1001D000F0CF13C09B9911C05524E0E15E1668F47E
:1001E000E52DA4E5B0E00E94CA020E94C502E4E643
:1001F000F0E00E94C1025394F0CFD5CFFFCF5D9BBA
:10020000FECFE881ECB9219608951A930A93AC8148
:10021000BD810E9476033097D9F0AA81BB810E94EC
:1002200076038F01309749F00230E0E01E0778F046
:10023000F80131978F01ED93FC93AC81BD81ED9175
:10024000FD913196FE93EE933197AE81A08303C06A
:10025000EE81EA93D4DF19810881279608952697C5
:100260000E948A0310E0EA89FB893196EA8BFB8BB6
:100270003197E4912E2FE03011F40C948402E12F99
:10028000F0E0309739F4253211F411E002C00E94F9
:10029000E80239C1E130A0E0FA07A9F4253219F4E7
:1002A0000E94E8022FC112E040E000E02D3211F47C
:1002B00001E029C12B3211F44BE225C1203211F4A7
:1002C00040E221C104C0E230A0E0FA0739F450E076
:1002D00013E0203311F4006816C106C0E330A0E03B
:1002E000FA0711F00C948302203310F02A3308F03F
:1002F00015C0A52FB0E0EAE0F0E0EA02F0015E2FC1
:10030000652F7727A22FB0E0E0E3F0E00E9483039F
:10031000EA1BFB0BDB01EA0F5E2FF5C00E94F30224
:10032000E336A0E0FA0749F40E94F602E889F98969
:10033000A481AA930E94FC02E5C0E337A0E0FA077B
:1003400041F40E94F6020E9406030E94AC021E2F96
:100350000CC0E037A0E0FA0761F40E94F6020E94A8
:1003600006030E94B6021E2F086002600F7730E07D
:100370003FC0E436A0E0FA0721F0E936A0E0FA0732
:1003800011F4046004C0E537A0E0FA0731F4E8ECAA
:10039000F0E0EE83FF8315E011C0E835A0E0FA0736
:1003A00011F4086006C0E837A0E0FA0711F00C94D9
:1003B0008202E2EDF0E0EE83FF8314E002FF14C05E
:1003C0000E94F6020E941003AB85AA233AF4EA8544
:1003D000FB850E942803EA87FB874DE2403011F03D
:1003E0001F5F01C00B7F04C00E94F6020E94100331
:1003F00000FD11C0151778F407FF08C002FF04C004
:100400000B7F242F115001C020E301C020E20E9485
:10041000E8025150EFCF312F01FF1AC03030B9F050
:1004200003FF08C0EE81FF813196EE83FF83319791
:10043000E49105C0AE81BF81ED91AE83BF83EA93A5
:100440000E94FC02503009F051503150E7CF50C0AB
:1004500020E3EE81FF810E947A03E887F987EE812D
:10046000FF813296EE83FF83E885F985AA85BB85F7
:10047000AE17BF0750F02F5FA885B985EA85FB85C9
:10048000EA1BFB0BEA87FB87EFCF2A3350F003FF11
:1004900004C00E94F302379603C00E94F302B7968D
:1004A0002E2F04FD1AC0213320F4A885B985119799
:1004B00009F409C0531710F000FF01C013C020E277
:1004C00007FF0BC020E3006102FF07C00B7F4A93C8
:1004D0000E94FC02503009F051500E94E802503056
:1004E00009F051503150A885B985129708F0B0CF66
:1004F00000FF08C0503031F05150E0E2EA930E9412
:10050000FC02F8CF10E0AFCE0E94910364960895EC
:10051000FF92F82E22971A930A93DE010E94240379
:100520008D01E0E0EA83EB83DE0114960E94240350
:100530000E947603FA93EA931A930A93FE01369681
:10054000FA93EA93E0E0F0E0FA93EA9388DE198107
:1005500008812496FF900895A991B991EE27FF276D
:100560006D91662311F03196FBCF0895AA27BB2722
:10057000E991F9910590002011F01196FBCFFD0152
:100580000895FA93EA930C941803E0E0F0E0FBBDC1
:10059000EABD0895F0E0EE0FFF1FEA0FFB1F0E9477
:1005A0007A03FA93EA930E948D00FBBDEABDEAED5F
:1005B000F0E0FA93EA93EAB5FBB5662777270E9445
:1005C0007E0384E00E9488022696ECE2F1E0D9CF17
:1005D0002A93EF85F889FA93EA93FE013F96FA93FE
:1005E000EA930C940501E22FF0E00895E889F98977
:1005F0003497E88BF98B0895EF85F889FA93EA939D
:10060000FE013F96FA93EA930C940501A889B989F3
:1006100014960E947603EE83FF83FA93EA9308957B
:10062000A889B98914960E947603EA87FB87089502
:10063000E991F991309639F080EA9FE00197F1F75E
:10064000A8953197C9F708950024AF0DB01D0895FE
:10065000F195E195F0400895F09560957095E195DC
:10066000FF4F6F4F7F4F0895EE0FFF1F661F771FDD
:1006700008953F934F935F930024112444275527F7
:1006800030E2AA0FBB1F881F991F001C111C441FBA
:10069000551F0E1A1F0A460B570B28F40E0E1F1E6D
:1006A000461F571F01C0A1603A9559F7FD01BC01D3
:1006B000D001CA015F914F913F91089504D0D9DFD5
:1006C0000EF4CADF0895E89477FF02C0C5DF68948E
:1006D00097FF0BC00024A095B0958095909511963A
:1006E000801D901D00F8039400FA0895ED91FC918F
:1006F000119708950590F491E02D08957A936A93E7
:10070000FA93EA9308951B2EBF2FF12D1A2EAE2FC8
:10071000E12D08955A934A933A932A931A930A9390
:1007200008955D814C813B812A811981088108955A
:00000001FF
