:0C0000000C942A000C9400000C940000EA
:10000C000C9400000C9400000C9400000C94000064
:10001C000C9400000C9400000C9400000C94000054
:10002C000C9400000C9400000C9400000C94000044
:10003C000C9400000C9400000C9400000C94000034
:10004C000C9400000C940000F894EE27ECBBF1E04B
:10005C00FBBFEBBFE5BFF8E1F1BDE1BD8DE0A2E078
:10006C00BB27ED938A95E9F780E094E0A0E6ED9349
:10007C000197E9F7EFE5EDBFE4E0EEBFC0E6D1E0B4
:10008C000C944800E0E0EBBBEABBE8BBE8E0E7BB64
:10009C00E0E0E5BBE4BBE2BBE1BBE1E6E3BFE0E0F3
:1000AC00E2BFECBFEFBDEEBDEDBDECBDE7BDE6BD07
:1000BC00EBBDEABDE9BDE8BDE2BDE5BDE4BDE3BD18
:1000CC00E5BFE4BFE9BFE0E8E8B9E0E0E0BF11E07C
:1000DC001F3F18F40AD01F5FFBCF1FEF113018F031
:1000EC0004D01150FBCFF3CFFFCF1CBFEAE0F0E000
:1000FC00FA93EA930C948200E991F991309639F0D5
:10010C0080EA9FE00197F1F7A8953197C9F7089518
:00000001FF
