:040000000C94070154
:100004000C9400000C9400000C9400000C9400006C
:100014000C9400000C9400000C9400000C94D1018A
:100024000C9400000C9400000C9400000C9400004C
:100034000C9400000C9400000C9400000C9400003C
:100044000C9400000C9400000C9400000C9400002C
:100054001027E80364000A000100001000011000EA
:100064000100000000003030303030300057726939
:1000740074653A000D0A57726974653A00526561F5
:1000840064203A000D0A526561643A000D0A4C324C
:100094003933445F312054657374202E2E2E200092
:1000A40020646F6E65000D0A4C323933445F322090
:1000B40054657374202E2E2E20000D0A4C43445F89
:1000C40074657374004D45474131360044455645C7
:1000D4004C4F504D454E5420425244000D0A4C455D
:1000E400442054657374202E2E2E20000D0A4144A2
:1000F400432054657374202E2E2E000D0A4348208D
:1001040025643A2025303364203D3E202530346474
:10011400206D56000D0A000D0A0A2320444F4E4557
:100124002E000D0A0A204E6F7720707265737320BB
:100134006B657973206F6E2072656D6F74650D0A3F
:100144000050726573732072656D6F7465206B6502
:100154007973000D0A0A4B6579203A202564200042
:100164000D0A0A0A4D656761313620646576656C4F
:100174006F706D656E7420626F61726420666F7259
:100184002070726F6A6563742F70726F6475637424
:100194002F726F626F7469637320646576656C6F28
:1001A400706D656E74000A0D4C43442069732061C0
:1001B4007373756D656420746F2062652070726559
:1001C40073656E742E000A0D4C43442069732061DC
:1001D4007373756D656420746F206265206162734A
:1001E400656E742E000001002D4E414E000080C04B
:1001F400070060016A0004000A00660001006D0146
:10020400EA0102007101F2010000F894EE27ECBB50
:10021400F1E0FBBFEBBFE5BFF8E1F1BDE1BD8DE06F
:10022400A2E0BB27ED938A95E9F780E094E0A0E68D
:10023400ED930197E9F7E4EFF1E08591959100974B
:1002440061F0A591B59105901590BF01F00105905D
:100254000D920197E1F7FB01F0CFEFE5EDBFE4E08C
:10026400EEBFC0E6D1E00C9478030E942C0A20E093
:1002740030E0A698AE9A9E99FECF9E9BFECF9E99A3
:10028400FECF8CEB93E10197F1F750E05C3080F402
:10029400E0E09E99E1E01E2F80E59AE10197F1F7F5
:1002A400220F331F0E9440072E2B3F2B5F5FEECFA0
:1002B400F9010E94330A71C01A930A93D6DFEF73CF
:1002C400F0701E2FD2DFEF73F0700E2F0117B1F70D
:1002D400E02F099119910895E8814E2E0E94430759
:1002E400772061F40E943008E030E1F3E0EAEA9319
:1002F4000E9464087E2EE1E0E71591F70E944C0706
:100304000E943008E1EAEA930E946408E0E0EA937C
:100314000E944908AE2EBB240E943F08F5010C94AC
:1003240082060E943F0848800E9443070E943008CA
:10033400E0EAEA930E9464087E2E0E944C07EA8158
:10034400EA930E9464080E943F08E5E0F0E00E94FE
:1003540052070C94DF06E881E066E7B9369A349BCD
:10036400FECF349AE5B1219608951A930A9300E6D4
:1003740011E0EA81FB810E9456071A930A930E94B6
:10038400D305ED81EA93ED81EA930E946C061A93FA
:100394000A930E94C3061981088126960895EA9358
:1003A400FA93EBE7F1EEFDBDECBDC39B02C0C3982D
:1003B40001C0C39AF991E99118950E948406E1E776
:1003C400F0E00E945B070E945F070E946D0788F4BB
:1003D400F8940E9473070E94780778940E9480071B
:1003E4000E949C060E9480070E9485070E948A073B
:1003F400ECCF0E9492070E948406E4EFF1E00E9491
:100404005207E1E8F0E00E945B070E9495070E9412
:100414006D0768F4F8940E94A30778946A920E9486
:100424009C066A920E9485070E948A07F0CF23C027
:100434000E942B080E942B080E945F070E946D07F0
:1004440058F40E9473070E9478070E9480070E9454
:1004540085070E948A07F2CF0E9492070E9495079F
:100464000E946D0740F40E94A3076A920E948507C8
:100474000E948A07F5CFE8EBFBE00E94520708953B
:10048400E0E9F0E00E94AA072296949A9698959A39
:1004940097980E94AF079498969A9598979A0E9475
:1004A400AF0794989598969897980E94B2070C94E1
:1004B4008206EAEAF0E00E94AA072296EFE0E7BB90
:1004C400E0E0E8BBC09AC198C29AC3980E94AF0703
:1004D400C098C19AC298C39A0E94AF07C098C198A5
:1004E400C298C3980E94B2070C9482060E942E0AF6
:1004F40032E020E1EEEBF0E00E94AA0722962A9374
:100504000E94F1060E9484060E94B50733970E9458
:10051400BC073197EA930E946C06E9ECF0E00E9474
:100524005B070E94B50737970E94BC07EA930E94B5
:100534006C06E0EDF0E00E945B070E9492070E94C7
:10054400350A24960895E0EEF0E00E94AA07229668
:100554000E94C4070E94C4070E94CB07A030E1E0B8
:10056400BE0780F4E0916701E8BBE8ECF0E00E948C
:1005740052070E947307EE0FFF1FE0936701F09389
:100584006801EACFE0E0E8BB0E94B2070C9482065F
:10059400E0EFF0E00E94AA0722966624E3E06E16DC
:1005A40010F00C941D030E94D0070E94CB071697ED
:1005B400B8F5E0916701EA93CEDEE0936901F0E0DB
:1005C4000E94C0090E94EF08ADECBCE483E493E40C
:1005D4000E941D09DF01CB01E0E0F0E060E271E47C
:1005E4000E946B09ABE6B1E00E94B608ED93FC9360
:1005F400EFEFF0E00E94D607E0916901FF2766273C
:1006040077270E941C0AE0916B01F0916C010E9413
:1006140056078CE00E94AF052E960E948A07C5CF2C
:10062400E4EFF1E00E945207E8E1F1E00E94AA073A
:1006340022966394B3CFEBE1F1E00E94AA070C94F5
:100644008206E6E2F1E00E94AA072296E0916A019E
:10065400E03031F00E948406E5E4F1E00E945B079B
:100664002BDEF0E0E0936701F0936801E7E5F1E049
:100674000E94D60784E00E94AF052696E0916A01A5
:10068400E03051F00E948406E0E0EA93EA930E948D
:100694007307FA93EA9369DE0E947307309711F4A3
:1006A40025DF23C0E130A0E0FA0711F4E9DE1DC024
:1006B400E230A0E0FA0711F4FCDE17C0E330A0E05A
:1006C400FA0711F465DF11C0E430A0E0FA0711F471
:1006D4003ADF0BC0E530A0E0FA0711F4A9DE05C04B
:1006E400E630A0E0FA0709F468DEBACFE8E1E1BD3C
:1006F400E0E1E1BDE0E0EBBBEABBEFEFE7BBE0E04C
:10070400E5BBE4BBE2BBECEFE1BBE0E0E3BFE2BF8F
:10071400ECBFEFBDE5E0EEBDE0E0EDBDECBDE7BD57
:10072400E6BDEBBDEABDE9BDE8BDE2BDE5BDE4BDA6
:10073400E3BDE5BFE4BFE4E0E9BFE0E0EBB9E8E135
:10074400EAB9E6E8E0BDE0E0E0BDE1E1E9B9E0E80E
:10075400E8B9E0E0E0BFE0E6E7B9E6E8E6B90E9420
:100764002B087894A79A0E94D0070E94CB07A03D3B
:10077400E7E0BE0768F4AF9A84EF91E00197F1F7E0
:10078400AF9884EF91E00197F1F70E948A07EDCFCB
:10079400E4E6F1E00E94AA0722960E94D007A298FC
:1007A400AA9A0E94CB07A83BEBE0BE0780F49A9973
:1007B40004C0E1E0E0936A010AC0E0E0E0936A016A
:1007C4000E948A07E1E0F0E00E945207EACFA0917C
:1007D4006A01A13019F4EAEAF1E002C0EAECF1E0BE
:1007E400FA93EA9380E00E94AF052296A0916A01F1
:1007F400A13099F47BDE9A9903C00E94DA07FBCFFB
:10080400DCDD9A9903C00E94DA07FBCF39DE9A999E
:1008140003C00E94DA07FBCF13C095DE9A9903C088
:100824000E94DA07FBCF04DE9A9903C00E94DA071C
:10083400FBCF26DE3EDE9A9903C00E94DA07FBCF87
:10084400A7DEFFDEFFCFFFCF5D9BFECFE881ECB9D3
:100854000C9429071A930A93AC81BD810E94140A4F
:100864003097D9F0AA81BB810E94140A8F01309776
:1008740049F00230E0E01E0778F0F80131978F016B
:10088400ED93FC93AC81BD81ED91FD913196FE9386
:10089400EE933197AE81A08303C0EE81EA93D4DF57
:1008A400198108812796089526970E942C0A10E042
:1008B400EA89FB893196EA8BFB8B3197E4912E2FE1
:1008C400E03011F40C94AB050E944007309739F4E2
:1008D400253211F411E002C00E94DD0739C1E13074
:1008E400A0E0FA07A9F4253219F40E94DD072FC10C
:1008F40012E040E000E02D3211F401E029C12B3276
:1009040011F44BE225C1203211F440E221C104C0AC
:10091400E230A0E0FA0739F450E013E0203311F498
:10092400006816C106C0E330A0E0FA0711F00C9489
:10093400AA05203310F02A3308F015C0A52FB0E023
:10094400EAE0F0E0EA02F0015E2F652F7727A22F9C
:10095400B0E0E0E3F0E00E94210AEA1BFB0BDB01BC
:10096400EA0F5E2FF5C00E94E807E336A0E0FA071D
:1009740049F40E94EB07E889F989A481AA930E94AB
:10098400F107E5C0E337A0E0FA0741F40E94EB0762
:100994000E94FB070E942B071E2F0CC0E037A0E02B
:1009A400FA0761F40E94EB070E94FB070E943507D7
:1009B4001E2F086002600F7730E03FC0E436A0E0ED
:1009C400FA0721F0E936A0E0FA0711F4046004C044
:1009D400E537A0E0FA0731F4E4E5F0E0EE83FF83C5
:1009E40015E011C0E835A0E0FA0711F4086006C06C
:1009F400E837A0E0FA0711F00C94A905EEE5F0E061
:100A0400EE83FF8314E002FF14C00E94EB070E94F0
:100A14000508AB85AA233AF4EA85FB850E94B4094C
:100A2400EA87FB874DE2403011F01F5F01C00B7F66
:100A340004C00E94EB070E94050800FD11C01517B1
:100A440078F407FF08C002FF04C00B7F242F115065
:100A540001C020E301C020E20E94DD075150EFCF26
:100A6400312F01FF1AC03030B9F003FF08C0EE8106
:100A7400FF813196EE83FF833197E49105C0AE8107
:100A8400BF81ED91AE83BF83EA930E94F10750309A
:100A940009F051503150E7CF50C020E3EE81FF817F
:100AA4000E94180AE887F987EE81FF813296EE8367
:100AB400FF83E885F985AA85BB85AE17BF0750F08B
:100AC4002F5FA885B985EA85FB85EA1BFB0BEA87BE
:100AD400FB87EFCF2A3350F003FF04C00E94E807DE
:100AE400379603C00E94E807B7962E2F04FD1AC05C
:100AF400213320F4A885B985119709F409C0531747
:100B040010F000FF01C013C020E207FF0BC020E378
:100B1400006102FF07C00B7F4A930E94F107503027
:100B240009F051500E94DD07503009F05150315006
:100B3400A885B985129708F0B0CF00FF08C05030DF
:100B440031F05150E0E2EA930E94F107F8CF10E04F
:100B5400AFCE0E94330A64960895FF92F82E22972E
:100B64001A930A93DE010E94B0098D01E0E0EA8342
:100B7400EB83DE0114960E94B0090E94140AFA93D2
:100B8400EA931A930A93FE013696FA93EA93E0E005
:100B9400F0E0FA93EA9388DE198108812496FF90A5
:100BA400089524971A930A93E0E0FAEC6AE97BE348
:100BB400EA83FB836C837D8300E0AB85AA2372F414
:100BC400E885F9856A857B850E94B809E887F987F5
:100BD4006A877B870E940D08EDE2EC930E9414085B
:100BE4000E94DD091E2F103071F4003061F4AA81D7
:100BF400BB818C819D81A130E0E0BE07E0E08E07DF
:100C0400E0E09E0739F40E940D080E944007F09628
:100C1400EC9301E00E9414080E94020AE887F98715
:100C24006A877B87AA81BB818C819D81EAE0F0E0A1
:100C340060E070E00E94DD09EA83FB836C837D83BE
:100C44000E94280A59F6AE81BF81E0E0EC93198135
:100C540008812C960895FFE0FA95F1F70895A7B35B
:100C6400AF70A7BBC19AC098F6DFC29AF4DFA6B3EF
:100C7400C298F1DFC29AEFDFC298A7FDF5CF0895BD
:100C8400A07FAB2BA8BBC29A0E942D06C2980E94DB
:100C94002D060895C198A7B3A76FA7BBB8B3BF70BB
:100CA400A881EEDFA881A295EBDFC19A0C942907F5
:100CB400C29A0E942D06E6B3C2980E942D06E07FD8
:100CC40008950E942D06F4DFAE2FF2DFC198E2955D
:100CD400EA2B08950E9431060E941D08EF58FE4F2A
:100CE400E081F0E0DF01E981F0E0EA0FFB1FEA9325
:100CF4000E944C06E981E0937501E881E093760156
:100D0400229608950E943106E2E0EA930E944C067E
:100D14000E943106ECE0EA930E944C060E943106E0
:100D2400E1E0EA930E944C06E0E0E0937601E09370
:100D340075010895EF93FF93A8816894AA3039F060
:100D4400E894E0917701A0917501AE1760F0E0910D
:100D54007601EF5FE0937601E0E0EA93E0917601BB
:100D6400EA93B8DF56F0E0917501EF5FE093750107
:100D740076DFC09AA881AA938DDFFF91EF910C943E
:100D840029071A93A981BA81ED91A983BA831E2FE9
:100D9400E03019F01A93CEDFF5CF0EC01A93E98133
:100DA400FA813196E983FA833197E4911E2FE0307A
:100DB40019F01A93BFDFF3CF188123960895AA2759
:100DC400BB271197F1F70895C198A7B3A76FA7BBE5
:100DD400B8B3BF70A8810E944206C19A38C0C298B5
:100DE400C098E881E09377010E941D08E058FF4F06
:100DF400E09373010E941D08E054FF4FE0937401D7
:100E04000E9420080E9420080E942008D8DFE0E207
:100E1400EA93DADFD4DFE8E20E942608E4E00E94E5
:100E24002608E5E80E942608A7B3AF70A7BBC19ABD
:100E34000E946306E53011F0E0E009C00E9431062B
:100E4400E6E0EA930E944C060E948406E1E02196C3
:100E54000895A991B991EE27FF276D91662311F0AA
:100E64003196FBCF0895AA27BB27E991F991059004
:100E7400002011F01196FBCFFD010895E12FF0E061
:100E84000895E881F981E0704F01892C9924582C48
:100E9400772408955A920E9464084A920C94640834
:100EA400FA93EA930C947D08662777270E941C0A1C
:100EB4000895FA93EA930C94D006E8E7F0E0FA93E5
:100EC400EA9380E00E94AF052296E0E0E093670198
:100ED400E09368010895A0916701B09168011597A6
:100EE4000895E0916701F09168010895EF5BFF4F69
:100EF400EA93F7DFFA93EA930C949301F2DFEF5B42
:100F0400FF4FEA9308950E942604ECE2F1E0C8CF73
:100F1400A7E6B1E0ED91FD913196FE93EE9308952D
:100F2400E8EEF3E0BDCFE8E8F0E0FA93EA9380E07E
:100F34000E94AF052296E0E0E0936701E093680128
:100F44000895CFDFFA93EA930E946E016E2E0895FE
:100F5400FA93EA9380E00C94AF05E8EBFBE0A0CFB2
:100F6400E4EAF0E0F5CFA22FB0E0E2E0F0E00E9486
:100F7400D8090895EA93A32FB0E0E2E0F0E00E94DC
:100F8400D8090895E1E0F0E0E0936701F093680187
:100F94000895A0916701B09168010895E0E0E0939D
:100FA4006701E09368010895FA93EA939ADF7CCF8E
:100FB400E4E6F0E075CF2A93EF85F889FA93EA9393
:100FC400FE013F96FA93EA930C942C04E22FF0E08E
:100FD4000895E889F9893497E88BF98B0895EF85AA
:100FE400F889FA93EA93FE013F96FA93EA930C94F4
:100FF4002C04A889B98914960E94140AEE83FF83ED
:10100400FA93EA930895A889B98914960E94140A58
:10101400EA87FB870895AE81BF811196AE83BF83B3
:1010240011970895EA81FB816C817D81A885B9853A
:101034008A859B850895E881F0E008950E94E10681
:10104400E0E3EA930C94E606EA930E944C060C94BF
:10105400E106A898A998A09AA19815C0A198A0986B
:10106400EE270000999B0895989B089504D0A19AB7
:1010740002D0A09AE1E06BE107C0A19AA09A03D044
:10108400A098F9DFA19865E36A95F1F7089578E0EF
:10109400A098F1DF989BFECFEEDF8894999908948D
:1010A400A09AF1DFEE1F7A9599F77991772311F4DD
:1010B400A19801C0A19ADFDFA098E5DFA09ADBDF49
:1010C400A198D9CFE99178E0EE0F10F4A19801C06E
:1010D400A19AD9DFA098CFDF989BFECFCCDFA09A4E
:1010E4007A9591F7A198C7DFA098CDDFE1E09999AF
:1010F400EE27A09A0895E991F991309639F080EAA3
:101104009FE00197F1F7A8953197C9F70895552302
:1011140042F4503811F4E0FF04C03196691F791F7E
:101124006BF050E8572711F45F9373C05F3F31F0C1
:10113400660F000C57956795752F08955F930020EF
:101144000AF073C06CC050E8192E1522880F991F3D
:101154009527550F879550E8072E0522660F771FB0
:101164007527550F67950895689401C0E8945F93B7
:10117400F2DF703818F07F3F08F44BC056E1571B7C
:10118400AAF4519558300EF4593030F0EFEFFFEFD8
:101194006FEF7FE777F91AC077275523B9F0EE0F81
:1011A400FF1F661F771F5A95D1F710C07727583055
:1011B40028F0EF2FF62F672F5850F9CF552331F031
:1011C40076956795F795E7955A95D1F700200AF437
:1011D400CDD05F910895689401C0E8943097604041
:1011E4007040B1F0002426F0772312F40094BED0AE
:1011F400172E7EE1112032F07A95EE0FFF1F661F45
:10120400111CF9CFEF2FF62F612D5F938ADF5F91C9
:101214000895EE27FF27662777275F910895EFEF5C
:10122400FFEF6FE77FEF5F910895EFEFFFEF6FE759
:101234007FE75F9108955F9386DF703851F39038AC
:1012440041F301240894791F23F41CF300203AF39A
:10125400ECCF0F921F932F933F934F931127222785
:101264009927689FA0018F9F302D410D591F6B9FB7
:10127400300D411D591F8E9F27D0BF9F25D06A9FD7
:1012840023D0BE9F1DD0AF9F1BD0AE9F110D291F31
:10129400391F491F591FE32FF42F652F522F4F91E8
:1012A4003F912F911F910F9066232AF0550FEE1F47
:1012B400FF1F661F02C073954BF229DF5F910895EB
:1012C400100D211D391F02C0200D311D491F591F4A
:1012D40008955F9338DF703821F411200AF49FCF0A
:1012E400A4CF903809F495CF01240894970B1BF4EC
:1012F400D4F30020F3CF792F1F932F933F934F9371
:1013040011241127222733274427552790E2AE17AB
:10131400BF078607410730F0AE1BBF0B860B410B9E
:10132400089401C08894551F221F331F111CAA1F43
:10133400BB1F881F441F9A9551F7F901612D4F91E6
:101344003F912F911F91662332F0550FEE1FFF1F1F
:10135400661F7A9543F2DBDE5F9108950024AF0D9A
:10136400B01D0895F195E195F0400895F0956095CC
:101374007095E195FF4F6F4F7F4F08956F2F660F64
:10138400660B762F08950024112490E1AA0FBB1F49
:10139400001C111C0E1A1F0A18F40E0E1F1E01C089
:1013A400A1609A9599F7FD01D00108952DD0EBDF46
:1013B4000EF4D8DF08953F934F935F9300241124D4
:1013C4004427552730E2AA0FBB1F881F991F001C12
:1013D400111C441F551F0E1A1F0A460B570B28F4E5
:1013E4000E0E1F1E461F571F01C0A1603A9559F7E4
:1013F400FD01BC01D001CA015F914F913F91089555
:10140400DADFFD01BC010895E894F7FF02C0AADF0A
:101414006894B7FF06C0A095B095119600F80394A0
:1014240000FA0895ED91FC91119708950590F491B7
:10143400E02D08957A936A93FA93EA9308951B2E04
:10144400BF2FF12D1A2EAE2FE12D08953097604055
:10145400704008955A934A933A932A931A930A939D
:1014640008955D814C813B812A8119810881089509
:00000001FF
