:0A0000000C946E000C9400000C94A8
:10000A0000000C9400000C9400000C9400000C9466
:10001A0000000C9400000C9400000C9400000C9456
:10002A0000000C9400000C9400000C9400000C9446
:10003A0000000C9400000C9400000C9400000C9436
:10004A0000000C9400000C94000005012601370101
:10005A005D018801B801EE010B02EE01B8018801C9
:10006A005D013701260105010501050188018801A5
:10007A00B801B80188015D015D0149014901260104
:10008A0026010501880188015D015D0149014901D7
:10009A002601880188015D015D01490149012601A6
:1000AA000501050188018801B801B80188015D01CF
:1000BA005D01490149012601260105011027E803CE
:1000CA0064000A000100001000011000010025640C
:1000DA002000F894EE27ECBBF1E0FBBFEBBFE5BFD5
:1000EA00F8E1F1BDE1BD8DE0A2E0BB27ED938A9571
:1000FA00E9F780E098E0A0E6ED930197E9F7EFE5EC
:10010A00EDBFE8E0EEBFC0E6D2E00C949C00E881C7
:10011A00F981662777270E94A103A0E8B4E88EE157
:10012A0090E00E94CB036627772722960895E0E0A5
:10013A00EBBBEABBE8BBEFEFE7BBECE0E5BBE0E01B
:10014A00E4BBE2BBE0E2E1BBE0E0E3BFE2BFECBF5D
:10015A00E0E4EFBDEAE0EEBDE0E0EDBDECBDE7BDF9
:10016A00E6BDEBBDEABDE9BDE8BDE2BDE5BDE4BD66
:10017A00E3BDE5BFE4BFE9BFEBB9E8E0EAB9E6E809
:10018A00E0BDE0E0E0BDE1E1E9B9E0E8E8B9E0E0DE
:10019A00E0BFE8ECF0E00E941C0395980E9420035F
:1001AA009A9912C05524EAE25E1668F4E52DA2E790
:1001BA00B0E00E9425030E942003E4E6F0E00E94DA
:1001CA001C035394F0CF13C09B9911C05524EFE040
:1001DA005E1668F4E52DA4E5B0E00E9425030E94AE
:1001EA002003E4E6F0E00E941C035394F0CFD5CF3D
:1001FA00FFCF5D9BFECFE881ECB9219608951A9353
:10020A000A93AC81BD810E94E3033097D9F0AA8199
:10021A00BB810E94E3038F01309749F00230E0E08E
:10022A001E0778F0F80131978F01ED93FC93AC81AA
:10023A00BD81ED91FD913196FE93EE933197AE819A
:10024A00A08303C0EE81EA93D4DF1981088127963F
:10025A00089526970E94F70310E0EA89FB893196F0
:10026A00EA8BFB8B3197E4912E2FE03011F40C943A
:10027A00DF02E12FF0E0309739F4253211F411E072
:10028A0002C00E94430395C1E130A0E0FA07A9F435
:10029A00253219F40E9443038BC112E040E000E0CA
:1002AA002D3211F401E085C12B3211F44BE281C1E8
:1002BA00203211F440E27DC104C0E230A0E0FA0726
:1002CA0061F450E013E0203339F40E944E03E0E871
:1002DA00F0E0EA2B0E2F6DC106C0E330A0E0FA076A
:1002EA0011F00C94DE02203310F02A3308F015C006
:1002FA00A52FB0E0EAE0F0E0EA02F0015E2F652FF8
:10030A007727A22FB0E0E0E3F0E00E94F003EA1BB7
:10031A00FB0BDB01EA0F5E2F4CC10E945103E3364F
:10032A00A0E0FA0749F40E945403E889F989A481F4
:10033A00AA930E945A033CC1E337A0E0FA0741F4AA
:10034A000E9454030E9464030E9407031E2F11C0D7
:10035A00E037A0E0FA07D9F40E9454030E9464032C
:10036A000E9411031E2F0E944E03E8E0F0E0EA2BE0
:10037A000E2F0E944E03E2E0F0E0EA2B0E2F0E94BD
:10038A004E03EFE7FFEFEA230E2F30E04FC0E436CB
:10039A00A0E0FA0721F0E936A0E0FA0739F40E9452
:1003AA004E03E4E0F0E0EA2B0E2F04C0E537A0E0AC
:1003BA00FA0731F4E6ECF0E0EE83FF8315E016C0AD
:1003CA00E835A0E0FA0739F40E944E03E8E0F0E0CD
:1003DA00EA2B0E2F06C0E837A0E0FA0711F00C94BA
:1003EA00DD02E0EDF0E0EE83FF8314E00E944E03AD
:1003FA000E946E03B9F00E9454030E947403AB85F5
:10040A00AA233AF4EA85FB850E949503EA87FB87CB
:10041A004DE2403011F01F5F04C00E944E030E945B
:10042A007C0304C00E9454030E9474030E94810347
:10043A00E9F41517D8F40E944E03E0E8F0E0EA2345
:10044A00FB23309771F00E944E030E946E0339F02D
:10045A000E944E030E947C03242F115001C020E306
:10046A0001C020E20E9443035150E3CF312F0E9482
:10047A004E03E2E0F0E0EA23FB23309701F130304B
:10048A00E9F00E944E03E8E0F0E0EA23FB2330970C
:10049A0041F0EE81FF813196EE83FF833197E4913B
:1004AA0005C0AE81BF81ED91AE83BF83EA930E94FE
:1004BA005A03503009F051503150E1CF6EC020E359
:1004CA00EE81FF810E94E703E887F987EE81FF81C9
:1004DA003296EE83FF83E885F985AA85BB85AE1738
:1004EA00BF0750F02F5FA885B985EA85FB85EA1B0F
:1004FA00FB0BEA87FB87EFCF2A3380F00E944E037B
:10050A00E8E0F0E0EA23FB23309721F00E94510350
:10051A00379603C00E945103B7962E2F0E944E03AE
:10052A00E0E1F0E0EA23FB23309761F5213320F480
:10053A00A885B985119709F410C0531718F00E94BD
:10054A00810309F024C020E20E944E03E0E8F0E0B3
:10055A00EA23FB233097B1F020E3A02FB0E0E0E1DB
:10056A00F0E0EA2B0E2F0E944E030E946E0351F018
:10057A000E944E030E947C034A930E945A03503001
:10058A0009F051500E944303503009F05150315044
:10059A00A885B985129708F092CF0E94810341F08D
:1005AA00503031F05150E0E2EA930E945A03F8CFFA
:1005BA0010E053CE0E94FE0364960895FF92F82E2F
:1005CA0022971A930A93DE010E9491038D01E0E0BB
:1005DA00EA83EB83DE0114960E9491030E94E303EF
:1005EA00FA93EA931A930A93FE013696FA93EA93D8
:1005FA00E0E0F0E0FA93EA932CDE19810881249670
:10060A00FF900895A991B991EE27FF276D9166236E
:10061A0011F03196FBCF0895AA27BB27E991F991EA
:10062A000590002011F01196FBCFFD010895FA9371
:10063A00EA930C948503E0E0F0E0FBBDEABD08957F
:10064A00F0E0EE0FFF1FEA0FFB1F0E94E703FA9389
:10065A00EA930E948C00FBBDEABDE8EDF0E0FA9354
:10066A00EA93EAB5FBB5662777270E94EB0384E095
:10067A000E94E3022696ECE2F1E0D9CF2A93EF85B5
:10068A00F889FA93EA93FE013F96FA93EA930C9457
:10069A000401A02FB0E00895E22FF0E00895E88960
:1006AA00F9893497E88BF98B0895EF85F889FA93DD
:1006BA00EA93FE013F96FA93EA930C940401A889FF
:1006CA00B98914960E94E303EE83FF83FA93EA93AF
:1006DA000895E4E0F0E0EA23FB2330970895A8891F
:1006EA00B98914960E94E303EA87FB870895EBEF22
:1006FA00FFEFEA230E2F0895E02FF0E0E17008954E
:10070A00E991F991309639F080EA9FE00197F1F783
:10071A00A8953197C9F708950024AF0DB01D089523
:10072A00F195E195F0400895F09560957095E19501
:10073A00FF4F6F4F7F4F0895EE0FFF1F661F771F02
:10074A0008953F934F935F9300241124442755271C
:10075A0030E2AA0FBB1F881F991F001C111C441FDF
:10076A00551F0E1A1F0A460B570B28F40E0E1F1E92
:10077A00461F571F01C0A1603A9559F7FD01BC01F8
:10078A00D001CA015F914F913F91089504D0D9DFFA
:10079A000EF4CADF0895E89477FF02C0C5DF6894B3
:1007AA0097FF0BC00024A095B0958095909511965F
:1007BA00801D901D00F8039400FA0895ED91FC91B4
:1007CA00119708950590F491E02D08957A936A930C
:1007DA00FA93EA9308951B2EBF2FF12D1A2EAE2FEE
:1007EA00E12D08955A934A933A932A931A930A93B6
:1007FA0008955D814C813B812A8119810881089580
:00000001FF
