:0C0000000C942A000C9400000C940000EA
:10000C000C9400000C9400000C9400000C9448001C
:10001C000C9400000C9400000C9400000C94000054
:10002C000C9400000C9400000C9400000C94000044
:10003C000C9400000C9400000C9400000C94000034
:10004C000C9400000C940000F894EE27ECBBF1E04B
:10005C00FBBFEBBFE5BFF8E1F1BDE1BD8DE0A2E078
:10006C00BB27ED938A95E9F780E094E0A0E6ED9349
:10007C000197E9F7EFE5EDBFE4E0EEBFC0E6D1E0B4
:10008C000C945C00AA93BA93EA93FA93EFB7EA93B1
:10009C00E8B3F0E0A1E0B0E0EA27FB27E8BBE99188
:1000AC00EFBFF991E991B991A9911895E0E0EBBBFB
:1000BC00EABBE8BBE1E0E7BBE0E0E5BBE4BBE2BBED
:1000CC00E1BBE3BFE2BFECBFEFBDEDE0EEBDE0E0B6
:1000DC00EDBDECBDE7BDE6BDEEE1EBBDE3E8EABD91
:1000EC00E0E0E2BDE5BDE4BDE3BDE5BFE4BFE0E1BA
:1000FC00E9BFE0E8E8B9E0E0E0BF7894FFCFFFCFDC
:00000001FF
