:0C0000000C942A000C9400000C940000EA
:10000C000C9400000C9400000C9400000C94000064
:10001C000C9400000C9400000C9448000C9400000C
:10002C000C9400000C9400000C9400000C94000044
:10003C000C9400000C9400000C9400000C94000034
:10004C000C9400000C940000F894EE27ECBBF1E04B
:10005C00FBBFEBBFE5BFF8E1F1BDE1BD8DE0A2E078
:10006C00BB27ED938A95E9F780E094E0A0E6ED9349
:10007C000197E9F7EFE5EDBFE4E0EEBFC0E6D1E0B4
:10008C000C94C000AA93EA93FA93EFB7EA93E0E8D2
:10009C00E2BF349A45B0E4E6E41518F4A8D0A1E028
:1000AC0002C0A5D0A0E0A0835394E3E0E51508F4CA
:1000BC005524E52DE066E7B9369AE0916101EE0F23
:1000CC00A0916001EA2BAE2FE0916201EE0FEE0FD2
:1000DC00EA2BAE2FE0916301EE0FEE0FEE0FEA2B41
:1000EC00E8BBE991EFBFF991E991A9911895E091DD
:1000FC006101E13021F4E0916201E13009F003C0CB
:10010C009698949A34C0E0916101E03021F4E0912A
:10011C006201E13009F006C09698949A95989798E8
:10012C00772427C0E0916101E13021F4E091620174
:10013C00E03009F007C0969894989598979AE1E06A
:10014C007E2E17C0E0916101E03021F4E091620154
:10015C00E03009F00EC0772029F49698949A95987F
:10016C00979807C0E1E0E71521F496989498959834
:10017C00979A0895E0E0EBBBEABBE5E5E8BBEFEF4F
:10018C00E7BBE5BBE0E0E4BBE2BBEFEFE1BBE3E0E8
:10019C00E3BFE0E0E2BFECBFEFBDEEBDEDBDECBDFB
:1001AC00E7BDE6BDEBBDEABDE9BDE8BDE2BDE5BD21
:1001BC00E4BDE3BDE5BFE4BFE1E0E9BFE0E8E8B9D9
:1001CC00E0E0E0BFE0E6E7B9E6E8E6B95524A0E0F8
:1001DC009A99A1E0A130D9F3E4EFF1E0FA93EA9314
:1001EC000E9402017894939A82DFFECFFFCFE52D17
:1001FC00F0E0E05AFE4F0895E991F991309639F00C
:10020C0080EA9FE00197F1F7A8953197C9F7089517
:00000001FF
