:100000000C9436000C9400000C9400000C9400003A
:100010000C9400000C9400000C9400000C94000060
:100020000C9400000C9466000C9400000C940000EA
:100030000C9400000C9400000C9400000C94000040
:100040000C9400000C9400000C9400000C94000030
:100050000C9400005A0001002D4E414E000001009A
:10006000060054000100670156000000F894EE27D6
:10007000ECBBF1E0FBBFEBBFE5BFF8E1F1BDE1BDDB
:100080008DE0A2E0BB27ED938A95E9F780E094E04C
:10009000A0E6ED930197E9F7EEE5F0E08591959103
:1000A000009761F0A591B59105901590BF01F00101
:1000B00005900D920197E1F7FB01F0CFEFE5EDBF61
:1000C000E4E0EEBFC0E6D1E00C945701AA93BA93E6
:1000D000EA93FA93EFB7EA93E0E8E2BFE6B1F0E023
:1000E000E061E6B945B0E4E6E41520F40E94DA01E7
:1000F000A1E003C00E94DA01A0E0A083E5E05E1663
:1001000078F4E1E0E51511F4E2E00BC0E2E0E5157A
:1001100011F4E3E006C0E3E0E51511F4E5E001C009
:10012000E1E05E2EA52DB0E0E0E6F0E0EA2BFB2B4F
:10013000E7B9E6B1F0E0E064E6B9E0916101F0E032
:10014000EE0FFF1FDF01E0916501F0E00E94160253
:10015000EA2BFB2BDF01E0916201F0E0EE0FFF1FC5
:100160000E941202EA2BFB2BDF01E0916301F0E019
:100170000E9416020E941202EA2BFB2BE8BBE991B7
:10018000EFBFF991E991B991A9911895E0916101B9
:10019000E13061F4E0916501E13041F4E091620108
:1001A000E13021F4E0916301E13009F005C0959858
:1001B000979A9698949A72C0E0916101E03061F448
:1001C000E0916501E13041F4E0916201E13021F418
:1001D000E0916301E13009F018C00E94DF01959AB7
:1001E00097989698949888249924E0916201E13038
:1001F00039F4E0916301E13019F40E94E90108F05B
:1002000003C00E94EF01F1CF49C0E0916101E130EC
:1002100061F4E0916501E03041F4E0916201E13088
:1002200021F4E0916301E13009F018C00E94DF0180
:1002300095989798969A949888249924E0916301C8
:10024000E13039F4E0916201E13019F40E94E901F2
:1002500008F003C00E94EF01F1CF20C0E0916101DE
:10026000E13061F4E0916501E13041F4E091620137
:10027000E03021F4E0916301E03009F00FC095987F
:10028000979A9698949AE2E3F0E04F01E6E4F0E062
:100290008E169F0618F40E94EF01F8CF0E94C3014A
:1002A000E17011F4E0E501C0EEE66E2E0895E4EF92
:1002B000F1E00E94F901E0E0EBBBEABBE5E5E8BB59
:1002C000EFEFE7BBE7E0E5BBE0E0E4BBE2BBEFEF6D
:1002D000E1BBE3E0E3BFE0E0E2BFECBFEFBDEEBDBA
:1002E000EDBDECBDE7BDE6BDEBBDEABDE9BDE8BDDA
:1002F000E2BDE5BDE4BDE3BDE5BFE4BFE1E0E9BFCC
:10030000E0E8E8B9E0E0E0BFE0E6E7B9E6E8E6B952
:100310005524789488249924E8ECF0E00E94F901AF
:10032000F40131964F019A928A920E94BB01989BE8
:100330001FC099991CC0E4E6F0E00E94F90196986C
:10034000949A9598979AE0EDF7E00E94F901969AB1
:100350009498959A9798E0EDF7E00E94F9019698A5
:10036000949895989798E4E6F0E00E94F901D4CF2C
:100370000DDFFECFFFCFE881F9810E941B020E94B2
:10038000FD0122960895E0916701F0916801609166
:10039000690170916A01ADE6BEE486EC91E40E94C9
:1003A0002002EE59F8486F4F7F4F0E94FD01FB017C
:1003B000FF770895E52DF0E0E05AFE4F0895969AF4
:1003C0009498959A9798E8E5F2E0FA93EA930C945A
:1003D0000602E62DD401F0E0AE17BF070895EAE06B
:1003E000F0E0FA93EA930E940602F40131964F017D
:1003F0000895FA93EA930C940602E0936701F09350
:1004000068016093690170936A010895E991F99117
:10041000309639F080EA9FE00197F1F7A89531977F
:10042000C9F70895EE0FFF1FEE0FFF1FEE0FFF1F1E
:10043000EE0FFF1F08956F2F660F660B762F08953E
:100440007A9F702D6B9F700DF89F700DE99F700D56
:100450006A9F602D710DFB9F600D711DE89F600DFF
:10046000711D8827FA9FF02D610D781FEB9FF00D0D
:10047000611D781FEA9FE02DF10D681F781F089518
:00000001FF
