:100000000C942A000C9447000C9447000C94470071
:100010000C9447000C9447000C947D0C0C94470002
:100020000C9447000C9447000C9447000C94470034
:100030000C9447000C9447000C9447000C94470024
:100040000C9447000C9447000C9447000C94470014
:100050000C94470011241FBECFE5D4E0DEBFCDBF16
:1000600010E0A0E6B0E0E2EFF9E102C005900D92E9
:10007000AE36B107D9F712E0AEE6B0E001C01D928E
:10008000A13FB107E1F70E946C000C94F80C0C94AE
:100090000000FFCF8FEF87BB18BA81E084BB15BA91
:1000A000089588B394E0892788BB8DE790E00E948B
:1000B000A80AF7CF88B392E0892788BB8AEF90E03F
:1000C0000E94A80AF7CF88B391E0892788BB84EF04
:1000D00091E00E94A80AF7CFEF92FF920F938FEF63
:1000E00087BB18BA81E084BB15BA01E020E030E09C
:1000F00045E550E060E670E083E690E00E9460082D
:1001000002E020E030E045E550E063E670E08AE59B
:1001100090E00E94600803E020E030E045E550E018
:1001200066E670E081E590E00E9460080E944A095E
:1001300080E090E00F91FF90EF9008950F931F9350
:10014000CF93DF93FC0180818823D9F00580F6816D
:10015000E02DC681D7818E01045F1F4FC8010E9428
:100160000803B8018FE990E00E94AA029E89E091FD
:100170006E00F0916F00868920E0981728F021E04A
:1001800003C0C0E0D0E0E7CF822F90E0DF91CF91B5
:100190001F910F9108950F931F93CF93DF931DC06D
:1001A000C0E0D0E0CE010C960E94080378948E0146
:1001B0000E5F1F4FC8010E9408039E898091700046
:1001C000891710F49093700089E0989FC001112462
:1001D000B80189589F4F0E94AA0280919F008823EE
:1001E00061F0F89480919F008823D1F2E091A400FF
:1001F000F091A500C681D781D5CF0E94DB06209162
:10020000710030917200821B930B90937400809365
:100210007300209175003091760080917300909169
:100220007400009709F474C02F5F3F4F309376003D
:1002300020937500019790937400809373002115AB
:10024000310509F09FC080919B0090919C00E09146
:100250009D00F0919E00F0939C00E0939B00909392
:100260009E0080939D0080818823B9F20580F681ED
:10027000E02D86819781009781F2EC018A819B8134
:100280002817390798F4C9CF0580F681E02D8681BB
:100290009781009791F1EC018A819B8120917500F3
:1002A000309176002817390708F4B7CFF8948E01FB
:1002B0000E5F1F4FC8010E9408038C899D89892BFE
:1002C00021F0CE010C960E94080378949E898091BB
:1002D0007000891710F49093700089E0989FC00116
:1002E0001124B80189589F4F0E94AA02E0919B00F7
:1002F000F0919C008081882339F62091750030911F
:1003000076008091730090917400009709F08CCF73
:1003100030937200209371002091700089E0289F33
:10032000F0011124E958FF4F8081882389F42223AA
:1003300019F436C0222359F1215089E0289FF00199
:100340001124E958FF4F80818823A1F32093700086
:10035000A181B281ED01AA81BB81B283A183CF01CA
:100360000396A817B907B1F0ED01EE81FF81F09374
:100370006F00E0936E00208131816789CF01F90120
:1003800009950EC0E0919B00F0919C006CCF1092FB
:10039000700006C0ED01AA81BB81B283A183E4CFC6
:1003A000DF91CF911F910F9108950F931F93CF93DA
:1003B000DF93EB010091750010917600080F191F73
:1003C00080916E0090916F0002960E940803E09168
:1003D0006E00F0916F0013830283809175009091FD
:1003E000760008171907A0F43296BF0180919D008E
:1003F00090919E000E94CE02209799F060916E002D
:1004000070916F00645F7F4FCE010E94CE0209C0E1
:100410003296BF0180919B0090919C000E94CE0279
:10042000EBCFDF91CF911F910F910895AF92BF92C3
:10043000CF92DF92EF92FF920F931F93CF93DF93B0
:100440006C01B62EA42E8AE190E00E94FA0AEC011B
:10045000892B09F45EC080916E0090916F00892B0A
:1004600099F1EB2C1B1468F1198E188EEE8AAF8A65
:10047000FE01C192D1928F01CF010E94A602CE014E
:100480000C960E94A602D987C887DB8BCA8B84E0B2
:1004900090E08E1991099D878C879E8980917000CC
:1004A000891760F089E0989FC0011124B80189582C
:1004B0009F4F0E94AA0281E090E02DC090937000AF
:1004C000F1CFEE24E394D0CFD0936F00C0936E00B1
:1004D00087E790E00E94960280E890E00E949602F2
:1004E00089E8E82E80E0F82EC7010E94960202E912
:1004F00010E0C8010E9496028FE990E00E949602E7
:10050000F0929C00E0929B0010939E0000939D004F
:10051000A8CF8FEF9FEFDF91CF911F910F91FF90A9
:10052000EF90DF90CF90BF90AF900895FC019C01B9
:100530002D5F3F4F328321838FEF9FEF948383831F
:10054000368325833087278310820895FC01118626
:1005500010860895CF93DF93AC01EC0129813A8195
:10056000F90182819381EB019B838A83FA01818166
:1005700092819D838C83E901EA81FB817583648389
:100580007B836A83FA0172836183EB015987488711
:1005900080818F5F8083DF91CF910895CF93DF9328
:1005A000AC01EB0128813981EFEF2F3F3E07B9F015
:1005B000DC011396FD0182819381EC018881998190
:1005C0002817390778F0FD01A281B381ED01EA8196
:1005D000FB818081918128173907A8F703C0EC01BE
:1005E000AF81B885ED01EA81FB81EB01FB83EA83F2
:1005F00075836483BD83AC83FD01738362835987F4
:100600004887EA0188818F5F8883DF91CF910895C1
:10061000CF93DF93DC01EC01EA81FB818C819D812A
:10062000958384832C813D81E901FB83EA83ED017D
:10063000E885F985818192818A179B0711F43283BD
:100640002183ED0119861886808181508083DF9196
:10065000CF910895FC010FB6F8940F92828D0F9000
:100660000FBE90E00895FC01828D90E00895FC019A
:10067000828D20E030E0882311F421E030E0C901D0
:100680000895FC01928D20E030E0838D981711F4DD
:1006900021E030E0C90108950F931F938C01FC0104
:1006A000808191810E94F40AC8010E94F40A1F917E
:1006B0000F9108950F931F93CF93DF93EC01FB01EC
:1006C0008A018A8D882329F12881398121153105F4
:1006D00089F06E817F818C8D482F50E0640F751FEB
:1006E0007F836E838A819B816817790770F4CF01BD
:1006F0000E94D90C8A8D81508A8F8D8D8F3F61F039
:100700008F5F8D8F81E090E018C0B9013F832E8309
:10071000EECF80E090E011C08885882319F481E055
:1007200090E00BC0CE0108960E943C078823B9F3E5
:1007300081E0F801808381E090E0DF91CF911F910B
:100740000F9108950F931F93CF93DF93EC010FB692
:10075000F8940F928E8D1816DCF489898823C1F0E5
:100760008E010F5E1F4F08C08E8D81508E8F181620
:100770007CF48989882361F0C8010E943C078823A2
:1007800099F30E9438078E8D81508E8F18168CF346
:100790008FEF8E8F0F900FBE0FB6F8940F928D8D46
:1007A0001816DCF488858823C1F08E01085F1F4F7E
:1007B00008C08D8D81508D8F18167CF48885882314
:1007C00061F0C8010E943C07882399F30E94380712
:1007D0008D8D81508D8F18168CF38FEF8D8F0F902C
:1007E0000FBEDF91CF911F910F9108954F925F92AD
:1007F0006F927F928F929F92AF92BF92CF92DF9231
:10080000EF92FF920F931F93CF93DF93CDB7DEB795
:1008100025970FB6F894DEBF0FBECDBF8C014B01FC
:100820005D834C83E22EFF24F39424E0A22EB12CAE
:10083000AC0EBD1E6E010894C11CD11C98E0492E5F
:10084000512C400E511E81E1682E712C600E711EDC
:100850008C819D81892B09F50FB6F8940F92F801D0
:10086000928D838D981708F459C0FF240F900FBE06
:10087000FF2009F04AC08C819D81892B09F4AFC00B
:10088000B501C6010E946909882309F0A8C0FF24A8
:10089000FA948C819D81892BF9F20E94D0060FB6C3
:1008A000F8940F92F801858D8F3F09F496C0F801F6
:1008B000868D8F3F09F486C00F900FBEF1E0FF16C2
:1008C00009F487C00FB6F8940F92F801928D0F903B
:1008D0000FBEF801838D981709F047C0B501C60116
:1008E0000E946909882309F040C06C817D81C201A2
:1008F0000E941608C8010E94A2030E94A70988232B
:1009000009F0AACF0E94240CA7CFFFEFFF1609F42D
:100910009FCF8F2D992787FD909563C0F801448D57
:100920004423C9F0EE2089F550E0B401848195811B
:100930000E94D90CF80184819581248D820F911D2C
:1009400095838483228133818217930720F08081ED
:10095000918195838483F801828D8F5F828F818955
:10096000882349F4FF24F39481CFC8010E94A20395
:100970000E94A70971CFC3010E943C07813091F703
:100980000E94240CFF24F39471CF50E0B401F801CD
:10099000868197810E94D90CF80126813781848D48
:1009A000482F50E0241B350B3783268380819181AB
:1009B0002817390780F682819381841B950B9783D2
:1009C0008683C9CF168E0F900FBEF1E0FF1609F097
:1009D00079CFC6010E942D0775CF158E68CF80E0B4
:1009E00090E025960FB6F894DEBF0FBECDBFDF9125
:1009F000CF911F910F91FF90EF90DF90CF90BF901C
:100A0000AF909F908F907F906F905F904F900895E0
:100A1000AF92BF92CF92DF92EF92FF920F931F930C
:100A2000CF93DF93182F062F882319F4C0E0D0E06E
:100A300043C08FE190E00E94FA0A0097B9F3EC01FD
:100A4000C12EDD24A02EBB24AC9C7001AD9CF00C0B
:100A5000BC9CF00C1124C70101960E94FA0A9C016B
:100A600099838883009719F1E80EF91EFB82EA82C8
:100A70001A8E9D838C830894C108D108CA9CC0013A
:100A8000CB9C900DDA9C900D1124820F931F9F83B5
:100A90008E831B8F0C8F8FEF8D8F8E8FCE010896DC
:100AA0000E949602CE0141960E94960205C0CE0198
:100AB0000E94F40AC0E0D0E0CE01DF91CF911F91F7
:100AC0000F91FF90EF90DF90CF90BF90AF9008957F
:100AD0002F923F924F925F927F928F929F92AF920E
:100AE000BF92CF92DF92EF92FF920F931F93CF931B
:100AF000DF93CDB7DEB725970FB6F894DEBF0FBEF4
:100B0000CDBF8C015B015D834C83722EFF24F39477
:100B100054E0852E912C8C0E9D1E6E010894C11CF4
:100B2000D11C41E1442E512C480E591E38E0232E91
:100B3000312C280E391E8C819D81892B01F50FB631
:100B4000F8940F92F801828D882309F057C0FF2492
:100B50000F900FBEFF2009F048C08C819D81892B2A
:100B600009F4A2C0B401C6010E946909882309F0F2
:100B70009BC0FF24FA948C819D81892B01F30E94F4
:100B8000D0060FB6F8940F92F801858D8F3F09F4C7
:100B90007FC0F801868D8F3F09F46FC00F900FBEA4
:100BA000F1E0FF1609F470C00FB6F8940F92F80147
:100BB000828D0F900FBE882309F059C0B401C60181
:100BC0000E946909882309F052C06C817D81C201AD
:100BD0000E941608C8010E94A2030E94A709882348
:100BE00009F0ADCF0E94240CAACFFFEFFF1609F445
:100BF000A2CF8F2D992787FD909558C0F801E680E8
:100C0000F7806081718161157105A9F0848D482F8D
:100C100050E09701240F351F37832683828193810B
:100C20002817390710F077836683F801668177818A
:100C3000C5010E94D90C772051F4F801828D8150B2
:100C4000828F8085882331F5FF24F39481CFF801CA
:100C5000F782E68281898823B9F3C2010E943C07AA
:100C6000882391F30E94240CFF24F39471CFC801D0
:100C70000E94A2030E94A70962CF168E0F900FBE9A
:100C8000F1E0FF1609F090CFC6010E942D078CCF2E
:100C9000158E7FCFC1010E943C078130A9F60E94CA
:100CA000240CFF24F39454CF80E090E025960FB6F7
:100CB000F894DEBF0FBECDBFDF91CF911F910F9192
:100CC000FF90EF90DF90CF90BF90AF909F908F906C
:100CD0007F905F904F903F902F9008950F931F93B8
:100CE000CF93DF93EC018A019A8D8B8D981728F5AD
:100CF0004C8D4423B9F0222349F550E08C819D812D
:100D00000E94D90C8C819D812C8D820F911D9D8319
:100D10008C832A813B818217930720F088819981F7
:100D20009D838C838A8D8F5F8A8F8E8D8F3F41F05C
:100D30008F5F8E8F81E090E02EC080E090E02BC02E
:100D400089898823E9F481E090E025C050E08E8114
:100D50009F810E94D90C2E813F818C8D482F50E0BD
:100D6000241B350B3F832E838881998128173907EF
:100D7000C8F68A819B81841B950B9F838E83D2CF7B
:100D8000CE0141960E943C078823E9F281E0F801F8
:100D9000808381E090E0DF91CF911F910F910895C2
:100DA0000FB6F8940F928091AE008F5F8093AE00E3
:100DB0000F900FBE08950FB6F8940F928091AC007B
:100DC0009091AD000F900FBE08950FB6F8940F925A
:100DD0008091B1000F900FBE90E00895CF93DF9304
:100DE0008091AE00882349F081E08093AA0032C050
:100DF0008091AF0081508093AF00E091AF0089E017
:100E0000E89FF0011124EC54FF4F8081882381F387
:100E10009091AF0089E0989FD0011124AC54BF4F4E
:100E2000ED01E981FA810280F381E02DFA83E98303
:100E3000CD010396E817F90739F0868197819093E1
:100E4000A9008093A80006C00280F381E02DFA83F8
:100E5000E983F3CFDF91CF910895FC018091AB003E
:100E600080838091AC009091AD009283818308953E
:100E700081E08093AA0008950F931F93CF93DF938F
:100E8000FC018081882389F500E010E0E8012C96C0
:100E9000CE010E9408038091AE00882301F5E8018D
:100EA0002296CE010E940803F80196898091AF0036
:100EB000891708F189E0989FC0011124BE018C5464
:100EC0009F4F0E94AA02E091A800F091A90020E0A3
:100ED000E8019E898689981788F021E00FC0BE013D
:100EE0008EEE90E00E94AA02EECF0580F681E02D02
:100EF00006811781CBCF9093AF00DCCF822F90E09B
:100F0000DF91CF911F910F9108950F931F93CF936E
:100F1000DF938091AE00882309F07EC08091AC0001
:100F20009091AD0001969093AD008093AC008091BC
:100F3000AC009091AD00892BA9F48091EA009091CA
:100F4000EB002091EC003091ED003093EB0020930A
:100F5000EA009093ED008093EC008091AB008F5FEE
:100F60008093AB00E091EA00F091EB008081882350
:100F700009F457C0E091EA00F091EB000580F6819A
:100F8000E02D86819781009709F44BC0EC012091F8
:100F9000AC003091AD008A819B8128173907B0F4ED
:100FA00040C0E091EA00F091EB000580F681E02D71
:100FB000868197810097A9F1EC012091AC003091D6
:100FC000AD008A819B812817390758F18E010E5F89
:100FD0001F4FC8010E9408038C899D89892B21F02D
:100FE000CE010C960E9408039E898091AF0089175C
:100FF00010F49093AF0089E0989FC0011124B801CC
:101000008C549F4F0E94AA02E091EA00F091EB00FD
:101010008081882331F605C08091B0008F5F809376
:10102000B000DF91CF911F910F9108950F931F93FF
:101030008B016091A8007091A900645F7F4F0E94AE
:10104000CE028091A8009091A90002960E94080308
:101050008091AC009091AD00800F911FE091A800AD
:10106000F091A900938382832091AC003091AD0070
:101070008217930768F46091A8007091A9006E5FD1
:101080007F4F8091EC009091ED000E94CE020CC049
:101090006091A8007091A9006E5F7F4F8091EA0077
:1010A0009091EB000E94CE021F910F910895F89449
:1010B0001092B2000E94920B08950E944900FDCF49
:1010C0004F925F926F927F928F929F92AF92BF9258
:1010D000CF92DF92EF92FF920F931F93CF93DF9304
:1010E0003C015B016A014901102F270181E290E078
:1010F0000E94FA0AEC01892B09F4B4C0C6010E94CF
:10110000FA0A988F8F8B009709F4A9C0A60165EAA7
:1011100070E00E94E20C48E050E0B501CE01499633
:101120000E94E90C18A2143008F03EC00E8B92E029
:10113000A92EB12CAC0EBD1EC5010E94A602CE0187
:101140000C960E94A602D987C88784E090E0801B95
:1011500091099D878C87DB8BCA8B8F89988D01972E
:10116000A401B3018C0D9D1D0E94210B99838883DE
:101170000FB6F8940F928091B1008F5F8093B10009
:101180008091B100813091F08091B2008823D9F52F
:10119000E091A800F091A90086891817A0F1D093DA
:1011A000A900C093A8002FC003E0C0CFD093A9002E
:1011B000C093A80084EB90E00E9496028DEB90E033
:1011C0000E94960286EC90E00E9496028FEC90E0DE
:1011D0000E94960288EDE82E80E0F82EC7010E945A
:1011E000960281EE90E00E9496028EEE90E00E94C0
:1011F0009602F092EB00E092EA0081EE90E090938C
:10120000ED008093EC009E898091B300891710F463
:101210009093B3008091AF00891710F49093AF00C2
:1012200089E0989FC0011124B5018C549F4F0E9402
:10123000AA020F900FBE4114510419F0F201D1839C
:10124000C0838091B200882339F0E091A800F0912A
:10125000A9008689811748F081E090E00AC0CE019C
:101260000E94F40A8FEF9FEF04C00E94240C81E0DB
:1012700090E0DF91CF911F910F91FF90EF90DF9061
:10128000CF90BF90AF909F908F907F906F905F9026
:101290004F900895EF92FF920F93EE24FF2400E009
:1012A00020E030E045E550E069E670E08DE598E04B
:1012B0000E946008813049F4F8948093B200109243
:1012C000AD001092AC000E94930B0F91FF90EF9035
:1012D0000895FC01DB010FB6F8940F929091AB00DA
:1012E0008081891771F1418152818091AC00909188
:1012F000AD008417950710F58091AC009091AD007A
:101300002D913C911197841B950B82179307B0F494
:101310008091AC009091AD00841B950B281B390B7C
:101320002D933C938091AB0080838091AC00909191
:10133000AD009283818380E090E006C081E090E080
:1013400003C041815281D8CF0F900FBE0895EF9214
:10135000FF920F931F93CF93DF93CDB7DEB7219703
:101360000FB6F894DEBF0FBECDBF0FB6F8940F9244
:101370008091AE0081508093AE008091AE008823B2
:1013800009F0CEC08091B100882309F4C9C0198248
:101390008091EE008823A1F1E091F300F091F40038
:1013A000E680F780E114F10459F1C7010C960E9420
:1013B000080387010E5F1F4FC8010E940803F70151
:1013C00096898091AF00891710F49093AF0089E05F
:1013D000989FC0011124B8018C549F4F0E94AA020B
:1013E000A091A800B091A900F7019689FD01868916
:1013F000981770F2F1E0F9838091EE00882361F68E
:101400008091B000882309F484C08091B0008823C3
:1014100009F478C08091AE00882309F084C08091DF
:10142000AC009091AD0001969093AD008093AC001C
:101430008091AC009091AD00892BA9F48091EA00D5
:101440009091EB002091EC003091ED003093EB0097
:101450002093EA009093ED008093EC008091AB0024
:101460008F5F8093AB00E091EA00F091EB00808108
:10147000882399F53DC07C012091AC003091AD00EE
:10148000FC01828193812817390790F187010E5F53
:101490001F4FC8010E940803F70184899589892B91
:1014A00021F0C7010C960E940803F70196898091EC
:1014B000AF00891710F49093AF0089E0989FC001A6
:1014C0001124B8018C549F4F0E94AA02E091EA00B7
:1014D000F091EB008081882359F0E091EA00F091CF
:1014E000EB000580F681E02D86819781009719F643
:1014F0008091B00081508093B0008091B00088232B
:1015000009F088CF1092AA000E94240C81E090E09C
:1015100010C0F981F130B1F38091AA00813091F3CC
:1015200080E090E006C08091B0008F5F8093B000B3
:10153000DFCF0F900FBE21960FB6F894DEBF0FBE1F
:10154000CDBFDF91CF911F910F91FF90EF90089544
:101550000F931F939C01892BA1F10FB6F8940F9262
:101560008091AE008F5F8093AE000F900FBE009110
:10157000AC001091AD00020F131F8091A800909154
:10158000A90002960E940803E091A800F091A9002A
:10159000138302838091AC009091AD000817190766
:1015A00098F06091A8007091A9006E5F7F4F8091C4
:1015B000EA009091EB000E94CE020E94A7098823C6
:1015C00081F40E94240C0DC06091A8007091A900C4
:1015D0006E5F7F4F8091EC009091ED000E94CE02F3
:1015E000ECCF1F910F91089508951092F80010927A
:1015F000F70008950F931F93CF93DF938C010E9400
:10160000D0068091F7009091F8009801280F391FBB
:1016100041E0243F340718F0C0E0D0E00AC0821750
:101620009307D0F7EC01C350DF4F3093F8002093BD
:10163000F7000E94A709CE01DF91CF911F910F9172
:101640000895FC0191E19083319722E22083319744
:1016500083E38083319760833197672F7727608397
:1016600031971082319780E88083319710823197CB
:1016700082E08083319783E08083319784E08083A8
:10168000319785E08083319786E08083319787E0CA
:101690008083319788E08083319789E08083319718
:1016A00080E1808331979083319782E18083319705
:1016B00083E18083319784E18083319785E1808362
:1016C000319786E18083319787E18083319788E184
:1016D0008083319789E18083319780E280833197DD
:1016E00081E2808331972083319783E28083319731
:1016F00040833197452F55274083319786E2808379
:10170000319787E28083319788E28083319789E23D
:101710008083319780E38083319781E38083CF0199
:101720000197089508951BBC89EF8ABD8BE08EBD9B
:1017300089B7806189BFA091A800B091A900CD911F
:10174000CDBFDD91DEBFFF91EF91DF91CF91BF91D2
:10175000AF919F918F917F916F915F914F913F9149
:101760002F911F910F91FF90EF90DF90CF90BF903E
:10177000AF909F908F907F906F905F904F903F9031
:101780002F901F900F900FBE0F90089581E090E072
:1017900008950F920FB6F8940F921F9211242F9272
:1017A0003F924F925F926F927F928F929F92AF92F1
:1017B000BF92CF92DF92EF92FF920F931F932F93DE
:1017C0003F934F935F936F937F938F939F93AF93C9
:1017D000BF93CF93DF93EF93FF93A091A800B091B5
:1017E000A9000DB60D920EB60D920E9485070E94BB
:1017F000EE06A091A800B091A900CD91CDBFDD91DA
:10180000DEBFFF91EF91DF91CF91BF91AF919F919B
:101810008F917F916F915F914F913F912F911F9188
:101820000F91FF90EF90DF90CF90BF90AF909F907F
:101830008F907F906F905F904F903F902F901F9070
:101840000F900FBE0F9008950F920FB6F8940F925D
:101850001F9211242F923F924F925F926F927F922C
:101860008F929F92AF92BF92CF92DF92EF92FF92B0
:101870000F931F932F933F934F935F936F937F9398
:101880008F939F93AF93BF93CF93DF93EF93FF9388
:10189000A091A800B091A9000DB60D920EB60D92C0
:1018A0000E94EE06A091A800B091A900CD91CDBFF5
:1018B000DD91DEBFFF91EF91DF91CF91BF91AF91AD
:1018C0009F918F917F916F915F914F913F912F9158
:1018D0001F910F91FF90EF90DF90CF90BF90AF904E
:1018E0009F908F907F906F905F904F903F902F9040
:1018F0001F900F900FBE0F9008950F920FB6F8949F
:101900000F921F9211242F923F924F925F926F92EB
:101910007F928F929F92AF92BF92CF92DF92EF927F
:10192000FF920F931F932F933F934F935F936F9368
:101930007F938F939F93AF93BF93CF93DF93EF9357
:10194000FF93A091A800B091A9000DB60D920EB61C
:101950000D920E9485070E94EE06A091A800B0910A
:10196000A900CD91CDBFDD91DEBFFF91EF91DF9159
:10197000CF91BF91AF919F918F917F916F915F9127
:101980004F913F912F911F910F91FF90EF90DF901A
:10199000CF90BF90AF909F908F907F906F905F900F
:1019A0004F903F902F901F900F900FBE0F90089573
:1019B0001895FB01DC0102C001900D92415050408E
:1019C000D8F70895DC0101C06D9341505040E0F715
:1019D0000895FB01DC014150504048F001900D9208
:1019E0000020C9F701C01D9241505040E0F7089512
:0219F000FFCF27
:0E19F20054310054320054330049444C450037
:00000001FF
