:020000000C945E
:100002002A000C9400000C9400000C9400000C9444
:1000120000000C9400000C9400000C9400000C945E
:1000220000000C9400000C9400000C9400000C944E
:1000320000000C9400000C9400000C9400000C943E
:1000420000000C9400000C9400000C9400000C942E
:100052000000F894EE27ECBBF1E0FBBFEBBFE5BF7D
:10006200F8E1F1BDE1BD8DE0A2E0BB27ED938A95F9
:10007200E9F780E094E0A0E6ED930197E9F7EFE578
:10008200EDBFE4E0EEBFC0E6D1E00C944800E0E052
:10009200EBBBEABBE8BBEFEFE7BBE7E0E5BBE0E0C9
:1000A200E4BBE2BBE0EFE1BBE0E0E3BFE2BFECBFF9
:1000B200EFBDEEBDEDBDECBDE7BDE6BDEBBDEABDFE
:1000C200E9BDE8BDE2BDE5BDE4BDE3BDE5BFE4BF1A
:1000D200E9BFE0E8E8B9E0E0E0BF9A9906C016D0CF
:1000E20095989798949896980FC09B9906C00ED0B1
:1000F200959A9798949A969807C09C9905C006D0AD
:100102009598979A9498969AE8CFFFCFEAEFF0E005
:10011200FA93EA930C948D00E991F991309639F0B3
:1001220080EA9FE00197F1F7A8953197C9F7089502
:00000001FF
