:0E0000000C9430000C9400000C9400000C9442
:10000E0000000C9400000C9400000C9400000C9462
:10001E0000000C9400000C9400000C9400000C9452
:10002E0000000C9400000C9400000C9400000C9442
:10003E0000000C9400000C9400000C9400000C9432
:10004E0000000C940000080402010400600154003A
:10005E000000F894EE27ECBBF1E0FBBFEBBFE5BF71
:10006E00F8E1F1BDE1BD8DE0A2E0BB27ED938A95ED
:10007E00E9F780E094E0A0E6ED930197E9F7E8E573
:10008E00F0E085919591009761F0A591B59105905D
:10009E001590BF01F00105900D920197E1F7FB015C
:1000AE00F0CFEFE5EDBFE4E0EEBFC0E6D1E00C949B
:1000BE006000E0E0EBBBEABBE8BBEFE0E7BBECE3E4
:1000CE00E5BBE0E0E4BBE2BBE0EFE1BBE0E0E3BFB9
:1000DE00E2BFECBFEFBDEEBDEDBDECBDE7BDE6BDD5
:1000EE00EBBDEABDE9BDE8BDE2BDE5BDE4BDE3BDE6
:1000FE00E5BFE4BFE9BFE0E8E8B9E0E0E0BFA0E0BB
:10010E009A99A1E0A130D9F3E8EEF3E0FA93EA93DD
:10011E000E94AA0012D0E8BB10D0F0E00E94B600F8
:10012E00E2BBE4E0F0E0FA93EA930E94AA001F5FBC
:10013E00143008F010E0EECFFFCFE12FF0E0E05AE0
:10014E00FE4FE0810895E991F991309639F080EAF9
:10015E009FE00197F1F7A8953197C9F70895EE0F33
:10016E00FF1FEE0FFF1FEE0FFF1FEE0FFF1F089575
:00000001FF
